:0400000091EF3EF04E
:107D16009AEC3EF027EC3FF0FDD7FFD700EE01F0DE
:107D2600110EEE6AE806FDE100018BEF3EF0720EE1
:107D3600D312000E956E000E946E9386000E896E19
:107D4600000E8A6E000E8B6E000E8C6E000E8D6E0F
:107D560078EC3FF01200010E0126000E0222000E02
:107D66000322000E0422B40E015C080E0258020E15
:107D76000358000E0458D8A01200000E8CB4010E51
:107D8600136E1350D8A402D0010E01D0000E126E4D
:107D9600124612468C501218FB0B12188C6E000EEF
:107DA600016E000E026E000E036E000E046E1200CF
:107DB60060AE48D064CF12F0050E136ED890123222
:107DC600132EFCD7125063CF14F0156AD8901436D0
:107DD6001536D89014361536D89014361536141034
:107DE600056E1550066E62CF12F0050E136ED89012
:107DF6001232132EFCD7125061CF14F0156AD890A8
:107E060014361536D89014361536D89014361536DD
:107E16001410076E1550086E65CF09F066CF0AF08C
:107E260067CF0BF068CF0CF069CF0DF06ACF0EF07C
:107E36006BCF0FF06CCF10F06DCF11F0609E779284
:107E4600010E1200000E1200DBEC3EF00009D8B461
:107E560049D00850020AC20ED8B40718D8A442D096
:107E66000AAE02D0010E01D0000E166E16B002D078
:107E76008B9001D08B800AAC02D0010E01D0000E8F
:107E8600166E16B002D08B9201D08B820AAA02D04F
:107E9600010E01D0000E166E16B002D08B9401D0E2
:107EA6008B840AA802D0010E01D0000E166E16B001
:107EB60002D08B9601D08B860AA602D0010E01D085
:107EC600000E166E16B002D08C9001D08C800AA4DB
:107ED60002D0010E01D0000E166E16B002D08C92A2
:107EE60001D08C82AEEC3EF012007088800E6F6E70
:107EF6006E38E832070B040AD8A4FAD7400E726E21
:107F0600000E0E010E01436FB80E0E010E01446FF6
:107F1600050E0E010E01456FF80E0E010E017D6F66
:107F2600000E0E010E01FA6F000E0E010E01FB6F20
:107F3600000E0E010E01F86F000E0E010E01F96F14
:107F4600000E0E010E01FE6F000E0E010E01FF6FF8
:107F5600000E0E010E01FC6F000E0E010E01FD6FEC
:107F6600010E0E010E01466F000E0E010E01476F47
:107F7600F00E0E010E01716F0E010E0172690E01F7
:107F86000E0173690E010E0174690E010E01756909
:107F96000E010E0176690E010E0177690E010E01C2
:107FA6007869FC0E0E010E01796F0E010E017A69D9
:107FB6000E010E017B690E010E017C69000E0E0199
:107FC6000E01E26F000E0E010E01E36F2C0E0E0184
:107FD6000E01E06F200E0E010E01E16F000E6F6EB6
:107FE6006E38E832070B0009D8A4FAD7000E606E87
:0A7FF600000E0F010F01306F1200A2
:020000040020DA
:08000000FFFFFFFFFFFFFFFF00
:020000040030CA
:0E0000001D087F7CFF8991FF0FC00FE00F40AD
:00000001FF
